{
  "contractName": "Degram",
  "abi": [
    {
      "anonymous": false,
      "inputs": [
        {
          "indexed": false,
          "internalType": "uint256",
          "name": "id",
          "type": "uint256"
        },
        {
          "indexed": false,
          "internalType": "string",
          "name": "hash",
          "type": "string"
        },
        {
          "indexed": false,
          "internalType": "string",
          "name": "description",
          "type": "string"
        },
        {
          "indexed": false,
          "internalType": "uint256",
          "name": "tipAmount",
          "type": "uint256"
        },
        {
          "indexed": false,
          "internalType": "address payable",
          "name": "author",
          "type": "address"
        }
      ],
      "name": "ImageCreated",
      "type": "event"
    },
    {
      "anonymous": false,
      "inputs": [
        {
          "indexed": false,
          "internalType": "uint256",
          "name": "id",
          "type": "uint256"
        },
        {
          "indexed": false,
          "internalType": "string",
          "name": "hash",
          "type": "string"
        },
        {
          "indexed": false,
          "internalType": "string",
          "name": "description",
          "type": "string"
        },
        {
          "indexed": false,
          "internalType": "uint256",
          "name": "tipAmount",
          "type": "uint256"
        },
        {
          "indexed": false,
          "internalType": "address payable",
          "name": "author",
          "type": "address"
        }
      ],
      "name": "ImageTipped",
      "type": "event"
    },
    {
      "inputs": [],
      "name": "imageCount",
      "outputs": [
        {
          "internalType": "uint256",
          "name": "",
          "type": "uint256"
        }
      ],
      "stateMutability": "view",
      "type": "function",
      "constant": true
    },
    {
      "inputs": [
        {
          "internalType": "uint256",
          "name": "",
          "type": "uint256"
        }
      ],
      "name": "images",
      "outputs": [
        {
          "internalType": "uint256",
          "name": "id",
          "type": "uint256"
        },
        {
          "internalType": "string",
          "name": "hash",
          "type": "string"
        },
        {
          "internalType": "string",
          "name": "description",
          "type": "string"
        },
        {
          "internalType": "uint256",
          "name": "tipAmount",
          "type": "uint256"
        },
        {
          "internalType": "address payable",
          "name": "author",
          "type": "address"
        }
      ],
      "stateMutability": "view",
      "type": "function",
      "constant": true
    },
    {
      "inputs": [],
      "name": "name",
      "outputs": [
        {
          "internalType": "string",
          "name": "",
          "type": "string"
        }
      ],
      "stateMutability": "view",
      "type": "function",
      "constant": true
    },
    {
      "inputs": [
        {
          "internalType": "string",
          "name": "_imgHash",
          "type": "string"
        },
        {
          "internalType": "string",
          "name": "_description",
          "type": "string"
        }
      ],
      "name": "uploadImage",
      "outputs": [],
      "stateMutability": "nonpayable",
      "type": "function"
    },
    {
      "inputs": [
        {
          "internalType": "uint256",
          "name": "_id",
          "type": "uint256"
        }
      ],
      "name": "tipImageOwner",
      "outputs": [],
      "stateMutability": "payable",
      "type": "function",
      "payable": true
    }
  ],
  "bytecode": "0x60806040526040518060400160405280600681526020017f44656772616d000000000000000000000000000000000000000000000000000081525060009080519060200190620000519291906200006b565b5060006001553480156200006457600080fd5b5062000180565b82805462000079906200014a565b90600052602060002090601f0160209004810192826200009d5760008555620000e9565b82601f10620000b857805160ff1916838001178555620000e9565b82800160010185558215620000e9579182015b82811115620000e8578251825591602001919060010190620000cb565b5b509050620000f89190620000fc565b5090565b5b8082111562000117576000816000905550600101620000fd565b5090565b7f4e487b7100000000000000000000000000000000000000000000000000000000600052602260045260246000fd5b600060028204905060018216806200016357607f821691505b602082108114156200017a57620001796200011b565b5b50919050565b61103580620001906000396000f3fe60806040526004361061004a5760003560e01c806306fdde031461004f578063848564821461007a5780638567ade8146100bb57806392053b63146100d7578063a91b831414610102575b600080fd5b34801561005b57600080fd5b5061006461012b565b60405161007191906109d4565b60405180910390f35b34801561008657600080fd5b506100a1600480360381019061009c9190610a40565b6101b9565b6040516100b2959493929190610abd565b60405180910390f35b6100d560048036038101906100d09190610a40565b61031f565b005b3480156100e357600080fd5b506100ec61064f565b6040516100f99190610b1e565b60405180910390f35b34801561010e57600080fd5b5061012960048036038101906101249190610c6e565b610655565b005b6000805461013890610d15565b80601f016020809104026020016040519081016040528092919081815260200182805461016490610d15565b80156101b15780601f10610186576101008083540402835291602001916101b1565b820191906000526020600020905b81548152906001019060200180831161019457829003601f168201915b505050505081565b60026020528060005260406000206000915090508060000154908060010180546101e290610d15565b80601f016020809104026020016040519081016040528092919081815260200182805461020e90610d15565b801561025b5780601f106102305761010080835404028352916020019161025b565b820191906000526020600020905b81548152906001019060200180831161023e57829003601f168201915b50505050509080600201805461027090610d15565b80601f016020809104026020016040519081016040528092919081815260200182805461029c90610d15565b80156102e95780601f106102be576101008083540402835291602001916102e9565b820191906000526020600020905b8154815290600101906020018083116102cc57829003601f168201915b5050505050908060030154908060040160009054906101000a900473ffffffffffffffffffffffffffffffffffffffff16905085565b60008111801561033157506001548111155b61033a57600080fd5b6000600260008381526020019081526020016000206040518060a00160405290816000820154815260200160018201805461037490610d15565b80601f01602080910402602001604051908101604052809291908181526020018280546103a090610d15565b80156103ed5780601f106103c2576101008083540402835291602001916103ed565b820191906000526020600020905b8154815290600101906020018083116103d057829003601f168201915b5050505050815260200160028201805461040690610d15565b80601f016020809104026020016040519081016040528092919081815260200182805461043290610d15565b801561047f5780601f106104545761010080835404028352916020019161047f565b820191906000526020600020905b81548152906001019060200180831161046257829003601f168201915b50505050508152602001600382015481526020016004820160009054906101000a900473ffffffffffffffffffffffffffffffffffffffff1673ffffffffffffffffffffffffffffffffffffffff1673ffffffffffffffffffffffffffffffffffffffff168152505090506000816080015190508073ffffffffffffffffffffffffffffffffffffffff166108fc349081150290604051600060405180830381858888f19350505050158015610539573d6000803e3d6000fd5b5034826060015161054a9190610d76565b826060018181525050816002600085815260200190815260200160002060008201518160000155602082015181600101908051906020019061058d929190610898565b5060408201518160020190805190602001906105aa929190610898565b506060820151816003015560808201518160040160006101000a81548173ffffffffffffffffffffffffffffffffffffffff021916908373ffffffffffffffffffffffffffffffffffffffff1602179055509050507fc1d8dfa99b3f84f95d3f0bc4a768addeb97b83b20aef7f9cb6729e126bafd2f98383602001518460400151856060015185604051610642959493929190610abd565b60405180910390a1505050565b60015481565b6000815111610699576040517f08c379a000000000000000000000000000000000000000000000000000000000815260040161069090610e18565b60405180910390fd5b60008251116106dd576040517f08c379a00000000000000000000000000000000000000000000000000000000081526004016106d490610e84565b60405180910390fd5b600073ffffffffffffffffffffffffffffffffffffffff163373ffffffffffffffffffffffffffffffffffffffff16141561074d576040517f08c379a000000000000000000000000000000000000000000000000000000000815260040161074490610ef0565b60405180910390fd5b6001600081548092919061076090610f10565b91905055506040518060a001604052806001548152602001838152602001828152602001600081526020013373ffffffffffffffffffffffffffffffffffffffff168152506002600060015481526020019081526020016000206000820151816000015560208201518160010190805190602001906107e0929190610898565b5060408201518160020190805190602001906107fd929190610898565b506060820151816003015560808201518160040160006101000a81548173ffffffffffffffffffffffffffffffffffffffff021916908373ffffffffffffffffffffffffffffffffffffffff1602179055509050507fc1d8dfa99b3f84f95d3f0bc4a768addeb97b83b20aef7f9cb6729e126bafd2f9600154838360003360405161088c959493929190610f9e565b60405180910390a15050565b8280546108a490610d15565b90600052602060002090601f0160209004810192826108c6576000855561090d565b82601f106108df57805160ff191683800117855561090d565b8280016001018555821561090d579182015b8281111561090c5782518255916020019190600101906108f1565b5b50905061091a919061091e565b5090565b5b8082111561093757600081600090555060010161091f565b5090565b600081519050919050565b600082825260208201905092915050565b60005b8381101561097557808201518184015260208101905061095a565b83811115610984576000848401525b50505050565b6000601f19601f8301169050919050565b60006109a68261093b565b6109b08185610946565b93506109c0818560208601610957565b6109c98161098a565b840191505092915050565b600060208201905081810360008301526109ee818461099b565b905092915050565b6000604051905090565b600080fd5b600080fd5b6000819050919050565b610a1d81610a0a565b8114610a2857600080fd5b50565b600081359050610a3a81610a14565b92915050565b600060208284031215610a5657610a55610a00565b5b6000610a6484828501610a2b565b91505092915050565b610a7681610a0a565b82525050565b600073ffffffffffffffffffffffffffffffffffffffff82169050919050565b6000610aa782610a7c565b9050919050565b610ab781610a9c565b82525050565b600060a082019050610ad26000830188610a6d565b8181036020830152610ae4818761099b565b90508181036040830152610af8818661099b565b9050610b076060830185610a6d565b610b146080830184610aae565b9695505050505050565b6000602082019050610b336000830184610a6d565b92915050565b600080fd5b600080fd5b7f4e487b7100000000000000000000000000000000000000000000000000000000600052604160045260246000fd5b610b7b8261098a565b810181811067ffffffffffffffff82111715610b9a57610b99610b43565b5b80604052505050565b6000610bad6109f6565b9050610bb98282610b72565b919050565b600067ffffffffffffffff821115610bd957610bd8610b43565b5b610be28261098a565b9050602081019050919050565b82818337600083830152505050565b6000610c11610c0c84610bbe565b610ba3565b905082815260208101848484011115610c2d57610c2c610b3e565b5b610c38848285610bef565b509392505050565b600082601f830112610c5557610c54610b39565b5b8135610c65848260208601610bfe565b91505092915050565b60008060408385031215610c8557610c84610a00565b5b600083013567ffffffffffffffff811115610ca357610ca2610a05565b5b610caf85828601610c40565b925050602083013567ffffffffffffffff811115610cd057610ccf610a05565b5b610cdc85828601610c40565b9150509250929050565b7f4e487b7100000000000000000000000000000000000000000000000000000000600052602260045260246000fd5b60006002820490506001821680610d2d57607f821691505b60208210811415610d4157610d40610ce6565b5b50919050565b7f4e487b7100000000000000000000000000000000000000000000000000000000600052601160045260246000fd5b6000610d8182610a0a565b9150610d8c83610a0a565b9250827fffffffffffffffffffffffffffffffffffffffffffffffffffffffffffffffff03821115610dc157610dc0610d47565b5b828201905092915050565b7f4465736372697074696f6e2063616e6e6f7420626520656d7074790000000000600082015250565b6000610e02601b83610946565b9150610e0d82610dcc565b602082019050919050565b60006020820190508181036000830152610e3181610df5565b9050919050565b7f496d61676520686173682063616e6e6f7420626520656d707479000000000000600082015250565b6000610e6e601a83610946565b9150610e7982610e38565b602082019050919050565b60006020820190508181036000830152610e9d81610e61565b9050919050565b7f73656e64657220697320307830206e6f74206170706c696361626c6500000000600082015250565b6000610eda601c83610946565b9150610ee582610ea4565b602082019050919050565b60006020820190508181036000830152610f0981610ecd565b9050919050565b6000610f1b82610a0a565b91507fffffffffffffffffffffffffffffffffffffffffffffffffffffffffffffffff821415610f4e57610f4d610d47565b5b600182019050919050565b6000819050919050565b6000819050919050565b6000610f88610f83610f7e84610f59565b610f63565b610a0a565b9050919050565b610f9881610f6d565b82525050565b600060a082019050610fb36000830188610a6d565b8181036020830152610fc5818761099b565b90508181036040830152610fd9818661099b565b9050610fe86060830185610f8f565b610ff56080830184610aae565b969550505050505056fea264697066735822122098c025f7d0fbb7c8793576a8461bc1b7d12920d869c86947d05a71ac5c542a4764736f6c634300080a0033",
  "immutableReferences": {},
  "source": "// SPDX-License-Identifier: MIT\r\npragma solidity ^0.8.10;\r\n\r\ncontract Degram {\r\n    string public name = \"Degram\";\r\n\r\n    // store images\r\n    uint public imageCount = 0;\r\n    mapping(uint => Image) public images;\r\n\r\n    struct Image {\r\n        uint id;\r\n        string hash;\r\n        string description;\r\n        uint tipAmount;\r\n        address payable author;\r\n    }\r\n\r\n    // event for image created\r\n    event ImageCreated(\r\n        uint id,\r\n        string hash,\r\n        string description,\r\n        uint tipAmount,\r\n        address payable author\r\n    );\r\n\r\n    // event for tip image\r\n    event ImageTipped(\r\n        uint id,\r\n        string hash,\r\n        string description,\r\n        uint tipAmount,\r\n        address payable author\r\n    );\r\n\r\n    // create image \r\n    function uploadImage(string memory _imgHash, string memory _description) public {\r\n        // require\r\n        require(bytes(_description).length > 0, \"Description cannot be empty\");\r\n        require(bytes(_imgHash).length > 0, \"Image hash cannot be empty\");\r\n        require(msg.sender != address(0x0), \"sender is 0x0 not applicable\");\r\n\r\n        // increment image count\r\n        imageCount++;\r\n        images[imageCount] = Image(imageCount, _imgHash, _description, 0, payable(msg.sender));\r\n\r\n        // trigger an event\r\n        emit ImageCreated(imageCount, _imgHash, _description, 0, payable(msg.sender));\r\n    }\r\n\r\n    // tip image\r\n    function tipImageOwner(uint _id) public payable {\r\n        // check if id is valid\r\n        require(_id > 0 && _id <= imageCount);\r\n        \r\n        // fetch image\r\n        Image memory _image = images[_id];\r\n        // fetch the author of the image\r\n        address payable _author = _image.author;\r\n\r\n        // transfer tip to author\r\n        payable(address(_author)).transfer(msg.value);\r\n\r\n        // update tip amount of the image\r\n        _image.tipAmount = _image.tipAmount + msg.value;\r\n\r\n        // update image obj in images mapping\r\n        images[_id] = _image;\r\n\r\n        // trigger an event\r\n        emit ImageCreated(_id, _image.hash, _image.description, _image.tipAmount, payable(_author));  \r\n    }\r\n    \r\n}",
  "sourcePath": "C:\\Users\\Suman\\Documents\\code\\de-gram\\src\\contracts\\Degram.sol",
  "compiler": {
    "name": "solc",
    "version": "0.8.10+commit.fc410830.Emscripten.clang"
  },
  "schemaVersion": "3.4.3",
  "updatedAt": "2021-11-24T12:04:15.252Z",
  "networkType": "ethereum",
  "devdoc": {
    "kind": "dev",
    "methods": {},
    "version": 1
  },
  "userdoc": {
    "kind": "user",
    "methods": {},
    "version": 1
  }
}